:0F152E0000010203040506070809000102030477
:06153D0001090001080A8B
:041513007F017E00D6
:0A151700EF1FAC0670011E4C600CC3
:0C152100753E7DAD3E153EED60EC80F7A0
:01152D00229B
:10143C00C291E4FFE4FEC290740A2FF8E6FDA80600
:10144C00088002C313D8FC139292D2900EBE08E609
:06145C000FBF0AE0D2916F
:011462002267
:1014F2007D5012036FAF05E52CFD7C0012142FAF57
:031502002EAE2DDD
:0E150500AB07AA0612143CAF03AE0202151784
:03148900E433FF4A
:02148C00AB07AC
:10148E00E4FAEBFFC374019FFFE49400FE7C007D41
:0E149E00FF12035D740A2AF8A6070ABA0AE4D0
:0114AC00221D
:1013CC003395E0FEEFC4F8540FC868FFEEC454F038
:1013DC0048FEEF2450FFE43ECF2DCF3CFE7C007D39
:0613EC00501203C4AF051E
:1013F200EF131313541F240AF8C000E6FEEF54073C
:10140200FF7401A807088002C333D8FCF45ED00041
:02141200F622C0
:10127900EBFD3395E0FCAF26EF3395E0FE12035DFD
:10128900AC06AD07AF27EF3395E0FEEFC4F8540F76
:10129900C868FFEEC454F048FEEF2450FFE43ECF87
:0D12A9002DCF3CFE7C007D501203C4AF052C
:1012B600EF131313541F240AF8C000E6FEEF540779
:1012C600FF7401A807088002C333D8FC4ED000F68D
:0112D60022F5
:10141400FE7C00EF2527FFEC3ECF2450CF3400FEA6
:0B1424007D5012036FAF05AD29AC280E
:0D142F00ED64014C70030213F21212B6229C
:1014AD00EF131313541F240AF8E6F4FEEF5407FF4D
:1014BD00EEA807088002C313D8FC30E0037F012299
:0314CD007F00227B
:10100D00BFFF02E4FFEF6042E513C4131313540155
:10101D00FD7E09D3EE64809480401674092EF8E6A7
:10102D00C41313135401FF740A2EF8E625E04F8004
:10103D0008740A2EF8E625E04DFF740A2EF8A6076F
:10104D001EC3EE6480948050CA22E50A5401C43355
:10105D0033335480FDE4FEC3EE64809489501874DC
:10106D000B2EF8E65401C43333335480FF740A2E2B
:10107D00F8E6C3134F8008740A2EF8E6C3134DFF2C
:0A108D00740A2EF8A6070EBE0ACD65
:011097002236
:10146300E4F97F0112148CE9FF7E00121505E4FFF5
:1014730012148CE9FFC374329FFFE49400FE12152B
:051483000509B932DD8E
:011488002241
:081098008F288C298D2A8B2B77
:1010A000E4F52FE52FFD7C00AF2BEF3395E0FE122A
:1010B000035DEF2450FDE43EFCE52875F010A42DFF
:1010C000FFE5F03CFE7C001214F2052FE52FC394DF
:1010D0000940D0E4F52FAF2BEF3395E0FE7C007D87
:1010E0001812035DAC06AD07E52875F010A42DFBC2
:1010F000E5F03CFAE52FFD7C00AF2BEF3395E0FEE9
:1011000012035DEF2450FFE43ECF2BCF3AFE1214C2
:0A111000F2052FE52FC3940940BC3F
:01111A0022B2
:06082B008F228C238D24B6
:10083100E4FF12148CAF221522EF7003020910128B
:10084100137F7C007D051203C48D2612137F7C006B
:100851007D021203C48D27E52770037527FF12134C
:100861007F7C007D051203C48D26E4F525AF27EFBB
:100871003395E0FEEF25E0FFEE33FEAD257C00125F
:10088100035DE526240AFDEC33CD2FFFED3EFE7D11
:100891000512036FAF05752C0185232D85242EAB21
:1008A100277D017C001210980525E525C39405409C
:1008B100BC7FF47E0112150512137F7C007D0512A9
:1008C10003C48D26E4F525E525C3940540030208FC
:1008D10036AF27EF3395E0FEEF25E0FFEE33FEADB7
:1008E100257C0012035DE526240AFDEC33CD2FFFA4
:1008F100ED3EFE7D0512036FAF05E4F52C85232D3A
:0F09010085242EAB277D01FC121098052580B8A8
:0109100022C4
:1012D700752700752805752900752A32E4FBFAFD84
:0312E700FC7FFF8A
:0612EA008F228B828A8333
:1012F000E4F9E930E007240AF8A6228008AF057473
:101300000A29F8A60709B90AE9E5281528AE2770C1
:101310000215274E6017E4F9E9C3940850EBAF8239
:0D13200012100DAF2AAE291215050980EB41
:01132D00229D
:06111B008F228C238D24BD
:10112100C200AF221522EF606CB200A200B312140C
:1011310089E4F52612137F7C007D501203C48D25AE
:10114100E52575F00812030E240AF8E6FFE525757A
:10115100F00812030EAEF0EFA806088002C313D800
:10116100FCF4FF3000047E0180027E00EE5F70C45B
:10117100A200FC33FDAF2512142FAF24AE231215AC
:10118100050526C3E526648094D040A87FE87E0348
:05119100121505808D20
:011196002236
:060911008F228C238D24CF
:10091700AF221522EF70030209F2E4FF12148C12C2
:10092700137F7C007D021203C48D26E526700375B4
:1009370026FFE4F525C3E5256480949050D2E4FBB7
:10094700D3E5256480F8EB64809840030209E6E468
:10095700FAEBFD3395E0FCAF26EF3395E0FE12038B
:100967005DAC06AD07EAFF1213CCE52575F0021260
:10097700030EAFF0EF7027EB75F00212030EAFF026
:10098700EF64017019EBFD3395E0FCAF26EF33956B
:10099700E0FE12035DAC06AD07EAFF121290E525F3
:1009A70075F00212030EAFF0EF64017025EB75F0DE
:1009B7000212030EAFF0EF7019EBFD3395E0FCAFB9
:1009C70026EF3395E0FE12035DAC06AD07EAFF1292
:1009D70012900AEA640560030209580B020947AF3F
:0B09E70024AE23121505052502093C73
:0109F20022E2
:060C67008F228C238D2476
:100C6D00E4FF12148CAF221522EF7003020D1B123C
:100C7D00137F7C007D021203C48D2612137F7C002E
:100C8D007D051203C48D27E52670037526FFE4F557
:100C9D0025C3E525648094D050CBE4FBD3E52564D2
:100CAD0080F8EB648098505AEBFD3395E0FCAF264D
:100CBD00EF3395E0FE12035DAC06AD07AF27EF12E3
:100CCD0013CCE52575F00212030EAFF0EF7011EBAA
:100CDD0075F00212030EAFF0EF640170031212797A
:100CED00E52575F00212030EAFF0EF6401700FEB06
:100CFD0075F00212030EAFF0EF70031212790B02B2
:0E0D0D000CA9AF24AE231215050525020C9E7D
:010D1B0022B5
:10120C00E525F404FF752A00752B32E4FBFA7D0802
:08121C008F268D278A288B29FB
:10122400E4F52CE4FBE52CFD7C00AF26EF3395E0E0
:10123400FE12035DAC06AD07EB75F010A42DFFE5BF
:10124400F03CFE7C00EF2527FFEC3ECF2450CF344A
:1012540000FE7D5012036FAF05AD29AC2812142F88
:101264000BBB05C1AF2BAE2A121505052CE52CC30B
:04127400941040AFE3
:011278002253
:060DBC008F228C238D2420
:100DC200E4FF12148CAF221522EF7003020E5512AB
:100DD200137F7C007D021203C48D25E52570037507
:100DE20025FF752A00752B327B017A00E4FDAF25C1
:100DF20012121C12120C752A00752B327B017A001A
:100E02007D08AF2512121CE525F404FF752A007532
:100E12002B32E4FBFAFD12121C752A00752B327B71
:100E2200017A00E4FDAF2512121CE525F404FF75DA
:100E32002A00752B32E4FBFAFD12121C752A00758A
:100E42002B327B017A007D08AF2512121C12120C84
:030E5200020DC7C7
:010E5500227A
:0605B0008F228C238D2434
:1005B600E4FF12148CAF221522EF70030207061215
:1005C600137F7C007D021203C4ED75F008A4F527A5
:1005D600E4F526C3E5266480948950D9E4F525C35D
:1005E60074099526C36480F8E52564809840030263
:1005F6000701E4FBEBFF3395E0FEEFC4F8540FC8A8
:1006060068FFEEC454F048FEAD25ED3395E0FCEFEF
:100616002DFFEE3CFEAD27ED3395E0FCEF2DFFEE12
:100626003CCF2450CF34001213E8EBFF3395E0FEA5
:10063600EFC4F8540FC868FFEEC454F048FEAD2569
:10064600ED3395E0FCC3EF9DFFEE9CFEAD27ED3349
:1006560095E0FCEF2DFFEE3CCF2450CF3400121373
:10066600E80BEB6405708DAF24AE23121505E4FB91
:10067600C374089526C36480F8E525648098506D98
:10068600EBFF3395E0FEEFC4F8540FC868FFEEC4E5
:1006960054F048FEAD25ED3395E0FCEF2DFFEE3C22
:1006A600FEAD27ED3395E0FCEF2DFFEE3CCF245059
:1006B600CF34001212ACEBFF3395E0FEEFC4F854D2
:1006C6000FC868FFEEC454F048FEAD25ED3395E043
:1006D600FCC3EF9DFFEE9CFEAD27ED3395E0FCEFEE
:1006E6002DFFEE3CCF2450CF34001212AC0BEB643E
:1006F60005600302067605250205E505260205D9ED
:0107060022D0
:0A0707008B318A3289338C348D3532
:10071100E4F53CE4F53DC3E53D9535E5346480F809
:100721007480985050AB36AA37A938853D827583BD
:1007310000120330FF3395E0FEAD3C7C0012035DF7
:10074100EF2450FDE43EFCAB31AA32A933853D8252
:1007510075830012033075F010A42DFFE5F03CFE07
:100761007C007D5012036FAF05E539FD7C0012144A
:100771002F053D80A1AF3BAE3A121505053CE53C86
:10078100C39409408EE4F53CE4F53DC3E53D953560
:10079100E5346480F8748098507CAB36AA37A93868
:1007A100853D82758300120330FF3395E0FE7C00A6
:1007B1007D1812035DAC06AD07AB31AA32A93385B2
:1007C1003D8275830012033075F010A42DFFE5F012
:1007D1003CFEC006C007AB36AA37A938853D8275F5
:1007E1008300120330FF3395E0FEAD3C7C00120321
:1007F1005DEF2450FDE43EFCD0E02DFFD0E03CFE57
:100801007C007D5012036FAF05E539FD7C001214A9
:100811002F053D02078CAF3BAE3A121505053CE5AD
:090821003CC3940950030207894D
:01082A0022AB
:060D1C008F228C238D24C0
:100D2200E4FF12148CAF221522EF7003020DBB12E6
:100D3200137F7C007D051203C4ED04F530E4F52534
:100D4200E525C39530503012137F7C007D051203D8
:100D5200C474262525F8A60512137F7C007D021295
:100D620003C4742B2525F8A605742B2525F8E670F7
:100D72000276FF052580C9E530FD7C0075360075D9
:100D8200370075382B75390185233A85243B7B0062
:100D92007A007926120707E530FD7C00753600756A
:100DA200370075382BE4F53985233A85243BFB7AE5
:090DB200007926120707020D2743
:010DBB002215
:040EF0008F228D239D
:100EF400E4F524C200C201FF12148CE4FDAF051214
:100F040013F20DBD20F7AF240524EF6430606DAFFC
:100F1400251214ADEF600E12137F7C007D50120376
:100F2400C48D2580EAAF22EF3395E0FEC3E5259F0B
:100F3400FFE49ECF2450CF3400FE7C007D5012038A
:100F44006FAF051214ADEF7025AF2212100DB20170
:100F5400300102B200A200E4FC33FDAF2512142FCD
:100F6400AF237E00121505AF251212B680B7AF2548
:0C0F74001213F2E52430E08E0523808A81
:010F8000224E
:10119700E525F404FF752A00752B32E4FBFA7D0878
:0811A7008F268D278A288B2971
:1011AF00E4F52CE4FBE52CFD7C00AF26EF3395E056
:1011BF00FE12035DAC06AD07EB75F010A42DFFE535
:1011CF00F03C121414E52CFD7C00AF26EF3395E0B4
:1011DF00FE12035DAC06AD07EB75F010A4C39DFFC7
:1011EF00E5F09C1214140BEB640570B9AF2BAE2A0B
:0C11FF00121505052CE52CC3940940A72F
:01120B0022C0
:060E56008F228C238D2485
:100E5C00E4FF12148CAF221522EF7003020EEF1276
:100E6C00137F7C007D021203C48D25E5257003756C
:100E7C0025FF752A00752B327B017A00E4FDAF2526
:100E8C001211A7121197752A00752B327B017A006B
:100E9C007D08AF251211A7E525F404FF752A00750E
:100EAC002B32E4FBFAFD1211A7752A00752B327B4D
:100EBC00017A00E4FDAF251211A7E525F404FF75B6
:100ECC002A00752B32E4FBFAFD1211A7752A007566
:100EDC002B327B017A007D08AF251211A7121197D6
:030EEC00020E6192
:010EEF0022E0
:060AD3008F228C238D240C
:100AD90078277C007D007BFF7A15792E7E007F0ABE
:100AE9001202E8C200AF221522EF7003020BAFA277
:100AF90000121489B200E4F52512137F7C007D0AE7
:100B09001203C48D3212137F7C007D0A1203C4AF15
:100B19000574272532F8E6FE74272FF8E6FD7427B9
:100B29002532F8A60574272FF8A6060525E525C35D
:100B3900943240C5E4F525E525C3940A50A712135C
:100B49007F7C007D021203C48D31E4F526E5316016
:100B59001574272525F8E675F008A47C002526FFDD
:100B6900EC35F0FE801C74272525F8E675F008A4FD
:100B79002407FFE435F0FEC3EF9526FFEE9400FE4F
:100B89007C007D5012036FAF05A200E4FC33FD1217
:100B9900142FAF24AE231215050526E526C39408A4
:060BA90040AB0525809120
:010BAF002223
:0609F3008F228C238D24ED
:1009F90078277C007D007BFF7A1579387E007F059A
:100A09001202E8C200AF221522EF7003020AD2A235
:100A190000E433FF12148CB200E4F52512137F7C35
:100A2900007D051203C48D2D12137F7C007D0512F4
:100A390003C4AF057427252DF8E6FE74272FF8E6C1
:100A4900FD7427252DF8A60574272FF8A606052578
:100A5900E525C3941940C5E4F525E525C39405505A
:100A6900A412137F7C007D021203C48D2CE4F526A9
:100A7900E52C601574272525F8E675F010A47C008F
:100A89002526FFEC35F0FE801C74272525F8E67530
:100A9900F010A4240FFFE435F0FEC3EF9526FFEE16
:100AA9009400FE7C007D5012036FAF05A200E4FCA8
:100AB90033FD12142FAF24AE231215050526E526A2
:090AC900C3941040AB0525809197
:010AD2002201
:080BB0008F228D238A248B257E
:100BB800E52270037522FF7F0112148CAF231523E1
:100BC800EF7003020C66E4F526E4FF12148CE4FBD4
:100BD800E4FAAF26EF3395E0FEEBFD3395E0FCED4C
:100BE8002FFFEC3EFE7C007D051203C4EDC4F854D3
:100BF8000FC868FFECC454F048FEEAFD3395E0FCEA
:100C0800EF2DFFEE3CCF2448CF3400FEAD22ED336C
:100C180095E0FC12035D7C007D501203C4ED245066
:100C2800FFE41213E70ABA10A90BBB03A3AF25AE62
:100C3800241215050526C3E52664809485408AD3C9
:100C4800E5259405E524648094805003020BC47460
:0E0C5800FB2525F52574FF3524F524020BC479
:010C6600226B
:060003008F228C238D24E6
:10000900E4FF12148CAF221522EF700302021712BB
:10001900137F7C007D021203C48D2712137F7C009D
:100029007D051203C48D28E4F526E4F525C374295A
:100039009526C36480F8E52564809840030201FF92
:10004900E5277003020126AF28EF3395E0FEEFC4E0
:10005900F8540FC868FFEEC454F048FEEF2450FF6F
:10006900E43EFEAD25ED3395E0FCEF2DFFEE1213D6
:10007900E7AF28EF3395E0FEEFC4F8540FC868FFE7
:10008900EEC454F048FEEF2450FFE43EFEAD25EDEA
:100099003395E0FCC3EF9DFFEE9C1213E8AF24AE4D
:1000A90023121505C374289526C36480F8E52564D1
:1000B9008098502AAF28EF3395E0FEEFC4F8540F2B
:1000C900C868FFEEC454F048FEEF2450FFE43EFE3A
:1000D900AD25ED3395E0FCEF2DFFEE1212ABC374A5
:1000E900289526C36480F8E52564809840030201B9
:1000F900FAAF28EF3395E0FEEFC4F8540FC868FF54
:10010900EEC454F048FEEF2450FFE43EFEAD25ED69
:100119003395E0FCC3EF9DFFEE9C0201F7AF28EF9A
:100129003395E0FEEFC4F8540FC868FFEEC454F0ED
:1001390048FEEF2478FFE43EFEAD25ED3395E0FC63
:10014900C3EF9DFFEE9C1213E8AF28EF3395E0FE55
:10015900EFC4F8540FC868FFEEC454F048FEEF240A
:1001690078FFE43EFEAD25ED3395E0FCEF2DFFEE83
:100179001213E7AF24AE23121505C374289526C3BD
:100189006480F8E525648098502CAF28EF3395E01A
:10019900FEEFC4F8540FC868FFEEC454F048FEEFF0
:1001A9002478FFE43EFEAD25ED3395E0FCC3EF9DD9
:1001B900FFEE9C1212ACC374289526C36480F8E53F
:1001C90025648098502BAF28EF3395E0FEEFC4F8F3
:1001D900540FC868FFEEC454F048FEEF2478FFE4DA
:1001E9003EFEAD25ED3395E0FCEF2DFFEE3C1212FE
:1001F900AC05250200360526C3E526648094A9507E
:0E020900030200337FE87E0312151702000E79
:0102170022C4
:06132E008D828C83A907EB
:101334007F0112148C7F0112148C7F0112148C1201
:101344001513121513121513AF0119EF602CE4FDD8
:10135400EDC454F0FF1213F20DBD05F4AF82AE8359
:10136400121505E4FDEDC454F0FF1212B60DBD05CF
:0A137400F4AF82AE8312150580CE9F
:01137E00224C
:1003FA00EFB4120040030205AA90040AF8282873F1
:10040A0002044002044302044C02052302052C02A2
:10041A00053E020547020550020559020567020515
:10042A00700205790205820205980205A10205AF4C
:10043A000205AF0205AF0214637D0A7C007F050244
:10044A00082B1212D7752700752805752900752AF9
:10045A00327B017A00E41212E61212D77527007570
:10046A002805752900752A32E4FBFA7DF0FC7FF035
:10047A001212EA752700752805752900752A32E4D3
:10048A00FBFA7DCCFC7FCC1212EA75270075280591
:10049A00752900752A32E4FBFA7DAAFC7FAA12129A
:1004AA00EA752700752805752900752A32E4FBFAD2
:1004BA007DAAFC7FAA1212EA7527007528057529FC
:1004CA0000752A32E4FBFA7DCCFC7FCC1212EA7565
:1004DA002700752805752900752A32E4FBFA7DF094
:1004EA00FC7FF01212EA1212D775270075280575DB
:1004FA002900752A32E4FBFA7D3FFC7F3F1212EA9B
:10050A00752700752805752900752A327B017A003E
:10051A007D3F7C007F3F0212EA7D0A7C007F0A024F
:10052A00111B7D647C007F051209117D327C007FDE
:10053A000A020C677D147C007F03020DBC7D327CAD
:10054A00007F0A0205B07D147C007F14020D1C7D19
:10055A00057F01120EF07D057FFF020EF07D327CD1
:10056A00007F05020E567D327C007F05020AD37D8C
:10057A00327C007F050209F37B6E7A007D147F01CD
:10058A00120BB07B6E7A007D14E4FF020BB07D0182
:10059A007C007F050200037DC87C007F2802132EA1
:0605AA00E4FF12148C2294
:1014D000E4F521AF211203FA0521E521C39403406D
:1014E000F212137F7C007D031203C4AF051203FACE
:0214F00080EF8B
:03000000020F816B
:0C0F8100787FE4F6D8FD75813E020FC8B1
:10021800E709F608DFFA8046E709F208DFFA803EC8
:1002280088828C83E709F0A3DFFA8032E309F608B5
:10023800DFFA8078E309F208DFFA807088828C831D
:10024800E309F0A3DFFA806489828A83E0A3F608D1
:10025800DFFA805889828A83E0A3F208DFFA804CAB
:1002680080D280FA80C680D4806980F28033801082
:1002780080A680EA809A80A880DA80E280CA8033EB
:1002880089828A83ECFAE493A3C8C582C8CCC58363
:10029800CCF0A3C8C582C8CCC583CCDFE9DEE78033
:1002A8000D89828A83E493A3F608DFF9ECFAA9F0B2
:1002B800EDFB2289828A83ECFAE0A3C8C582C8CC08
:1002C800C583CCF0A3C8C582C8CCC583CCDFEADE21
:1002D800E880DB89828A83E493A3F208DFF980CC83
:1002E80088F0EF60010E4E60C388F0ED2402B4047C
:1002F8000050B9F582EB2402B4040050AF23234523
:06030800822390026873DD
:10030E00C2D530F707B2D563F0FF05F030E70CB277
:10031E00D5F4048463F0FF05F080018430D502F437
:02032E000422A7
:10033000BB010CE58229F582E5833AF583E0225082
:1003400006E92582F8E622BBFE06E92582F8E222CC
:0D035000E58229F582E5833AF583E49322E6
:10035D00EF8DF0A4A8F0CF8CF0A428CE8DF0A42EB4
:02036D00FE226E
:10036F00BC000BBE0029EF8DF084FFADF022E4CC72
:10037F00F875F008EF2FFFEE33FEEC33FCEE9DEC3B
:10038F00984005FCEE9DFE0FD5F0E9E4CEFD22ED81
:10039F00F8F5F0EE8420D21CFEADF075F008EF2FCB
:1003AF00FFED33FD4007985006D5F0F222C398FDBC
:0503BF000FD5F0EA2259
:1003C400C2D5EC30E709B2D5E4C39DFDE49CFCEE54
:1003D40030E715B2D5E4C39FFFE49EFE12036FC35A
:1003E400E49DFDE49CFC800312036F30D507C3E455
:0603F4009FFFE49EFE22C3
:10137F00AC14AD15AE16AF177810EC4D4E4F700480
:10138F007CA57DA5C3EC13FCED13FDEE13FEEF134F
:10139F00FF5010EC64CCFCED644CFDEE644EFEEFA0
:1013AF0064CEFFD8DF8C148D158E168F17EE547FF9
:0D13BF00FE228E148F1574A5F516F5172269
:100F8D000214D0E493A3F8E493A34003F68001F296
:100F9D0008DFF48029E493A3F85407240CC8C33365
:100FAD00C4540F4420C8834004F456800146F6DF34
:100FBD00E4800B010204081020408090153DE47E72
:100FCD00019360BCA3FF543F30E509541FFEE49329
:100FDD00A360010ECF54C025E060A840B8E493A3F0
:100FED00FAE493A3F8E493A3C8C582C8CAC583CA1B
:100FFD00F0A3C8C582C8CAC583CADFE9DEE780BED3
:0115430000A7
:00000001FF
