:03000000020030CB
:02000B00016191
:10003000758901758A00758CFF75A882D28C900134
:10004000E97A097B007C207840E493F608A3DCF988
:10005000D28C31DCC28C1ABAFF011BEA4B70E6016C
:100060003E758A40758CFFC0D0A2009290A201928A
:1000700091A2029292A2039293A2049294A2059258
:1000800095A2069296A2079297A20892B0A2099210
:10009000B1A20A92B2A20B92B3A20C92B4A20D9298
:1000A000B5A20E92B6A20F92B7A21092A0A2119280
:1000B000A1A21292A2A21392A3A21492A4A2159298
:1000C000A5A21692A6A21792A7A2189287A2199289
:1000D00086A21A9285A21B9284A21C9283A21D92D0
:1000E00082A21E9281A21F9280C0E0E560B46445A6
:1000F0007560007400C200C201C202C203C204C221
:1001000005C206C207C208C209C20AC20BC20CC29B
:100110000DC20EC20FC210C211C212C213C214C24B
:1001200015C216C217C218C219C21AC21BC21CC2FB
:100130001DC21EC21FB54002D200B54102D201B598
:100140004202D202B54302D203B54402D204B545FD
:1001500002D205B54602D206B54702D207B548021B
:10016000D208B54902D209B54A02D20AB54B02D229
:100170000BB54C02D20CB54D02D20DB54E02D20ECB
:10018000B54F02D20FB55002D210B55102D211B5FF
:100190005202D212B55302D213B55402D214B5553D
:1001A00002D215B55602D216B55702D217B558026B
:1001B000D218B55902D219B55A02D21AB55B02D279
:1001C0001BB55C02D21CB55D02D21DB55E02D21E0B
:1001D000B55F02D21F0560D0E0D0D0327DC87E026C
:1001E0007F0ADFFEDEFADDF6226400000000640014
:1001F00000000064000000006400000000640000D3
:1002000000006400000000000000640000000064C2
:1002100000000000640000000064000000006400B2
:100220000000006400000000000000640000000006
:10023000640000000064000000006400000000642E
:1002400000000000640000000000000064000000E6
:100250000064000000006400000000640000000072
:100260006400000000640000000000000064000062
:100270000000640000000064000000006400000052
:100280000064000000006400000000000000640042
:100290000000006400000000640000000064000032
:1002A0000000640000000064000000000000006422
:1002B0000000000064000000006400000000640012
:1002C0000000006400000000640000000000000066
:1002D000640000000064000000006400000000648E
:1002E00000000000640000000000000000000000AA
:1002F00000640000000064000000006400000000D2
:090300006400000000640000002C
:00000001FF
