:03000000020030CB
:03000B00020115DA
:0300130002019E49
:03001B000201D609
:03002B0002058249
:10003000758911758CEC758A78758DFF758BCED2AC
:100040008CD28E75CBFF75CA9C75CDFF75CC9CD2BA
:10005000CAD28A7E057C03753A64753B1479001216
:1000600003F51203DD852B2A1203DD852B291203EC
:10007000DD852B281203DD75389B80FE75400175E8
:10008000412175424075435F75445F75455F754614
:100090005F75475F806675400175411A754231751D
:1000A000434875445F75455F75465F75475F804C93
:1000B00075400175411375422675433975444C7579
:1000C000455F75465F75475F803275400175411425
:1000D00075422375433275444175455075465F75C9
:1000E000475F801875400175411075421F75432E9A
:1000F00075443D75454C75465B75475F8540488541
:10010000414985424A85434B85444C85454D85464A
:100110004E85474F22300521758C9E758A58E52AF9
:10012000F4F590E529F4F580E528F4F5A0E52BF445
:100130003003024408F5B0803E758CFE758A0CDCF5
:10014000467C0A852A908529808528A0300306E50B
:100150002B4408F52B200603852BB0DE2975800083
:1001600075900075A00075390030030375390820BB
:1001700006038539B07E0520030CB200300007DF8E
:1001800005AF371201B4323001FCBC01F97590FFA4
:100190007580FF75A0FF2006ED75B0FF80E8DF13C6
:1001A000AF371201B4A2599259A25A9259A25B9246
:0701B0005AD25B32852A2EB2
:1001B70085292D85282C852B2F1203DD852B2A12C7
:1001C70003DD852B291203DD852B281203DD222071
:1001D7000402611E758DFF758B9CD53A37759000AB
:1001E70075800075A00020060375B000753A64D5C8
:1001F7003B0A753B0ADF05AF3712036D854048851B
:10020700414985424A85434B85444C85454D854642
:100217004E85474FE521B4081ED54F1EE566456A52
:10022700F56AE5654569F569E5644568F568E56773
:10023700456BF56B12030EB4071ED54E1EE56245DE
:100247006AF56AE5614569F569E5604568F568E558
:1002570063456BF56B12030EB4061ED54D1EE55EA6
:10026700456AF56AE55D4569F569E55C4568F568E0
:10027700E55F456BF56B12030EB4051ED54C1BE508
:100287005A456AF56AE5594569F569E5584568F5D6
:1002970068E55B456BF56B12030ED54B1BE55645C1
:1002A7006AF56AE5554569F569E5544568F568E510
:1002B70057456BF56B12030ED54A1BE552456AF598
:1002C7006AE5514569F569E5504568F568E55345BF
:1002D7006BF56B12030ED5491BE52E456AF56AE5EA
:1002E7002D4569F569E52C4568F568E52F456BF5FA
:1002F7006B12030ED5480F852A6A852969852868F8
:10030700852B6B12030E32856A908569808568A0FC
:06031700200603856BB017
:10031D0022758DFF85378BDE31852E90852D80855D
:10032D002CA0200603852FB07E96DF177F9675389B
:10033D009B852A908529808528A0200603852BB0D2
:10034D001201B4E538B40114AD38DD0F852A90855E
:10035D0029808528A0200603852BB032153880E82A
:10036D00856266856165856064856367855E628586
:10037D005D61855C60855F63855A5E85595D8558D5
:10038D005C855B5F85565A85555985545885575BF5
:10039D00855256855155855054855357852E528516
:1003AD002D51852C50852F53852A2E85292D852855
:1003BD002C852B2F1203DD852B2A1203DD852B298E
:1003CD001203DD852B281203DD22853282853383CE
:1003DD00E582B5300DE583B53108D536ED1204163D
:1003ED0080EEE4A393F52B2290068EE493F56DA396
:1003FD00E493A2E79203C2E7A2E69205C2E6A2E564
:10040D009206C2E5F5357534FF0534E534B5350290
:10041D0080D6A3E493A2E79204A2E69202A2E5920B
:10042D0001540FF536A3E493F537C4540FF521E5C8
:10043D0037540FF537740B9537F53775A8862003AC
:10044D000375A8827E05AF37300102804330021557
:10045D0075F006A4F53774FF9537F5377E967F96C0
:10046D0075A888802B30042875A888E521B404056B
:03047D0012007CEE
:10048000801BB405051200968013B406051200B057
:10049000800BB407051200CA80031200E4A3E493A2
:1004A000F531A3E4932582F530E5313583F53185C7
:1004B0008232858333300627D2ADE56DB404051250
:1004C00004E0801BB405051204FA8013B40605127B
:1004D0000514800BB4070512052E8003120548226F
:1004E000757801757921757A40757B5F757C5F75CC
:1004F0007D5F757E5F757F5F806675780175791A9F
:10050000757A31757B48757C5F757D5F757E5F752B
:100510007F5F804C757801757913757A26757B3904
:10052000757C4C757D5F757E5F757F5F80327578F9
:1005300001757914757A23757B32757C41757D5010
:10054000757E5F757F5F8018757801757910757A93
:100550001F757B2E757C3D757D4C757E5B757F5F51
:10056000857870857971857A72857B73857C7485D1
:100570007D75857E76857F77753D00756F64756EB8
:100580001422C2CFD56F2F30030575B008800375D4
:10059000B000756F64D56E06756E141206378578D7
:1005A00070857971857A72857B73857C74857D759C
:1005B000857E76857F77E56DB4080CD5770CE53FB1
:1005C0004522F522120622B4070CD5760CE53E45ED
:1005D00022F522120622B4060CD5750CE527452219
:1005E000F522120622B4050CD57409E5264522F53C
:1005F00022120622D57309E5254522F5221206228C
:09060000D57209E5244522F5221A
:10060900120622D57109E5234522F522120622D5C3
:100619007006853C221206223230030EA211921175
:10062900A2129211A2139212D2138522B022853EF0
:100639003F85273E8526278525268524258523244C
:10064900853C2312065E22153DE53DB4FF1E856DEE
:100659003D153D800DB900EF053DE53DB56D0D75C5
:100669003D00D808781909B902027900C082C0830F
:10067900900686E53D93F53CD083D08222804020C8
:1006890010080402010810858A0068000001900022
:100699000002500000043000000810000010100093
:1006A90000201000004080000080400080002000F1
:1006B9004000000020000000100000000800800039
:1006C90004004000020020000100000000000000BA
:1006D9000000000000008000000040000000200031
:1006E9000000000000000000000000000000800081
:1006F900000040858A0068000100200002004000D7
:100709000400800008000000100000002000000024
:100719004000200080004000008080000040000070
:100729000020000000100000000820000004400024
:1007390000028000000110000000100000001000FD
:100749000000300000005000000090000000100080
:10075900000010000000100000003000000050856B
:100769008A009C0001009000020050000400300043
:100779000800100010001000200010004000900038
:100789008000500000803000004010000020100060
:100799000010100000089000000450000002300012
:1007A900000110000000100000001000000090007F
:1007B9000000500000003000000010000000100090
:1007C90000011000000230000004500000089000F1
:1007D90000101000002010000040100000803000C0
:1007E9008000500040009000200010001000100010
:1007F90008001000040030000200500001009001C0
:100809004700D00003003000030050000C009000A6
:100819000C0030003300500033009000CC00300051
:10082900CC00500033C0900033C03000CC305000B1
:10083900CC30900033CC300033CC5000CC33900016
:10084900CC33300033CC500033CC9000CC33300063
:10085900CC33500033CC900033CC3000CC33500033
:10086900CC33900033CC300033CC5000CC339000E3
:10087900CC33300033CC500033CC9000CC33300033
:10088900CC33500033CC900033CC3000CC33500003
:10089900CC33900033CC300033CC5000CC339000B3
:1008A900CC33300030CC500030CC9000C033300015
:1008B900C033500000CC900000CC30000033500011
:1008C90000339000000C3000000C50000003900031
:1008D900000330014700B00000033000000350005E
:1008E900000C9000000C30000033500000339000E1
:1008F90000CC300000CC5000C0339000C033300031
:1009090030CC500030CC9000CC333000CC33500088
:1009190033CC900033CC3000CC335000CC33900032
:1009290033CC300033CC5000CC339000CC33300082
:1009390003005000030090000C0030000C00500030
:100949003300900033003000CC005000CC00900000
:1009590033C0300033C05000CC309000CC30300070
:1009690033CC500033CC9000CC333000CC33500022
:0D09790033CC900033CC3000CC335000CC98
:1009860033900033CC300033CC500147008800034D
:10099600009000030050000C0030000C0090003363
:1009A60000500033003000CC009000CC00500033E3
:1009B600C0300033C09000CC305000CC3030003313
:1009C600CC900033CC5000CC333000CC3390003385
:1009D600CC500033CC3000CC339000CC33500033B5
:1009E600CF300033CF9000CC3F5000CC3F300033A7
:1009F600FF900033FF5000CCFF3000CCFF9000F397
:100A0600FF5000F3FF3000FCFF9000FCFF5000FF9A
:100A1600FF3000FFFF900187004000030330000312
:100A26000350000C0C90000C0C300030305000309D
:100A3600309000C0C03000C0C05000C0C09000C0A0
:100A4600C0300030305000303090000C0C30000CBC
:100A56000C500003039000030330858900800001D9
:100A66000120000202400004048000080800001073
:100A76001000002020000040402000808040000040
:100A860000800000000000000000000000000000E0
:100A960000200000004000808080004040000020D0
:100AA6002000001010000008082000040440000286
:100AB60002800001010000000000000000000000AC
:100AC6000020000000400000008000000000000040
:100AD60000000000000000000020000000000147A8
:100AE60000F80003003000030050000000900000F2
:100AF6000030000C0050000C009000000030000098
:100B06000050003300900033003000000050000019
:100B1600009000CC003000CC005000000090000097
:100B260000300033C0500033C09000000030000099
:100B3600005000CC309000CC303000000050000057
:100B460000900033CC300033CC5000000090000001
:100B5600003000CC335000CC339000000030000051
:100B660000500033CC900033CC3000000050000021
:100B7600009000CC333000CC3350000000900000D1
:100B860000300030CC500030CC9000000030000027
:100B9600005000C0339000C0333000000050000009
:100BA60000900000CC300000CC5000000090000007
:100BB6000030000033500000339000000030000089
:100BC600005000000C9000000C30000000500000A7
:100BD60000900000033000000350414A008400FFEB
:100BE600FF300000004000FFFF900000002000FFE3
:100BF600FF500000008000FFFF3000FFFF500000A4
:100C060000800000002000FFFF5000FFFF90000062
:100C160000200000004000FFFF9000FFFF300000B2
:100C260000400000008000FFFF3000FFFF5000FF83
:100C3600FF9000000020000000400000008000FF40
:100C4600FF3000FFFF5000FFFF9000000020000073
:100C560000400000008000FFFF3000FFFF5000FF53
:100C6600FF9002480040000303B000030350000C4D
:100C76000C30000C0C90003030500030303000C08A
:100C8600C09000C0C05000C0C03000C0C09000304E
:100C9600305000303030000C0C90000C0C5000032B
:100CA600033000030390818A00F000010000000277
:100CB60000000004000000080000001000000020F2
:100CC60000000040000000800000000080000000DE
:100CD6004000000020F0000010F0000008F00000C6
:100CE60004F0000002F0000001F0000000E0000047
:0D0CF60000E0000000E0000000E000000051
:100D0300E0000000E0000000E0000000E000000060
:100D1300E0000000E0000000E0000000E000000050
:100D2300E0000000E0000000E0000001F00000022D
:100D3300F0000004F0000008F0000010F0000020B4
:100D4300F000004000000080000080000000400030
:100D53000000200000001000000008000000040054
:100D6300000002000000000000000000000000007E
:100D73000000000000000000000000000000000070
:100D83000000000000000000000000000000000060
:100D930000000000000000000000000000414A00C5
:100DA3007800FFFF3000FFFF5000000080000000CC
:100DB3002000FFFF5000FFFF900000002000000014
:100DC3004000FFFF9000FFFF3000000040000000E4
:100DD3008000FFFF3000FFFF500000009000000084
:100DE3003000FFFF5000FFFF9000000030000000C4
:100DF3005000FFFF9000FFFF300000005000000094
:100E03009000FFFF3000FFFF500000009000000043
:100E13003000FFFF5000FFFF90858A00780001003B
:100E230080000200400004002000080000001000C1
:100E3300000020000000400080008000400000808F
:100E43002000004000000020000000100000000807
:100E530080000004400000022000000100000000A8
:100E630000000000000000008000000040000000BF
:100E7300200000000000000000000000000000004F
:100E8300800000004000000020000000000000007F
:100E93000000000000434A008000010090000300AE
:100EA3005000070030000F0090001F0050003F006B
:100EB30030007F009000FF005000FF803000FFC033
:100EC3009000FFE05000FFF03000FFF89000FFFCBF
:100ED3005000FFFE3000FFFF9000FFFF5000FEFFB9
:100EE3003000FCFF9000F8FF5000F0FF3000E0FFFF
:100EF3009000C0FF500080FF300000FF9000007F93
:100F03005000003F3000001F9000000F500000070A
:100F1300300000039000000150424A0080000100AD
:100F2300200003004000070080000F0020001F0086
:100F330040003F0080007F002000FF004000FF8052
:100F43008000FFC02000FFE04000FFF08000FFF8BA
:100F53002000FFFC4000FFFE8000FFFF2000FFFF9A
:100F63004000FEFF8000FCFF2000F8FF4000F0FF80
:100F73008000E0FF2000C0FF400080FF800000FFF2
:100F83002000007F4000003F8000001F2000000F72
:0D0F93004000000780000003200000014026
:00000001FF
