:080003000001020305080C10C6
:03140300014100A4
:03000B000213E6F7
:0F13E600758CFD758A188542908543B0D28C3284
:08136C00FF121144AF0AAE09A3
:10137400EF1FAC0670011E4C6015750E00750FF062
:10138400E50F150FAC0E7002150E4C60E380F122D0
:1010D300C3740F950BFF7C00121358E50B2410FF0C
:0710E300121358AF0AAE0919
:1010EA008E0F8F10E5101510AE0F7002150F4E609F
:1010FA0040E4F511C3E5116480949050E7E4F512D9
:10110A0074212512F8E6FFAD11ED3395E0FCC3ED2D
:10111A009F7480F86C98AF12500512114480031224
:10112A0011A20512C3E512648094A040D305118070
:02113A00C322CE
:08113C00121144E50B2410FF21
:10114400EF75F008120A64FEBE03222442F8C000C0
:10115400E6FEEF75F008120A64AFF0C374079FFF50
:101164007401A807088002C333D8FC8022EF75F00D
:1011740008120A642442F8C000E6FEEF75F0081273
:101184000A64AFF07401A807088002C333D8FCF4E2
:051194005ED000F62210
:091199001211A2C3741F950BFF93
:1011A200EF75F008120A64FEBE03222442F8C00062
:1011B200E6FEEF75F008120A64AFF0C374079FFFF2
:1011C2007401A807088002C333D8FC8022EF75F0AF
:1011D20008120A642442F8C000E6FEEF75F0081215
:1011E2000A64AFF07401A807088002C333D8FC4E2A
:0411F200D000F62211
:0E13F5008F0D300103021144AF0D1211A22220
:1013D000E4FFA201E43375F0FFA4FE74422FF8A6E7
:0613E000060FBF04ED2220
:10133B002401FDE433FCEF3395E0FE120A98EF54E1
:0D134B0007FFC374079FFDE49400FC7F1FA3
:1013580074032DF58274003CF583E493FE74212F09
:04136800F8A60622BB
:10139400E4FEEFFD3395E0FC74032DF58274003C0C
:1013A400F583E493FD74212EF8A6050EBE20E322F6
:1011F600C202750F01751000751110751200751376
:011206001FC8
:1012070030020774212513F8E6FFE5116513700412
:10121700E51065126025AE13C3EE950F2421F8E69D
:10122700FD74212EF8A605E50FFD3395E0FCC3E517
:10123700139DF513E5129CF51280CF300207742138
:061247002511F8A60722A4
:1012A1008F088C098D0AD200AF081508EF603DB296
:1012B1000020001CE4F50BC3E50B6480948850E822
:1012C100AF0B121394AF0AAE091210EA050B80E7B7
:1012D100750B07C3E50B6480948040CCAF0B1213F0
:0D12E10094AF0AAE091210EA150B80E72247
:100DAB008F088C098D0AAF081508EF7003020E3DF2
:100DBB00E4F50BC3E50B6480949050EAE4FBD3E5B8
:100DCB000B6480F8EB648098505DAF03C007EB3386
:100DDB0095E0FEAD0BED3395E0FCC3ED9FFFEC9E74
:100DEB00FE7C007D08120AEDC374079DFDE49CFC9C
:100DFB00D007121358C3741F9BFFC007EBFF33952B
:100E0B00E0FEAD0BED3395E0FCC3ED9FFFEC9EFEDA
:100E1B007C007D08120AEDC374079DFDE49CFCD099
:100E2B00071213580B8097AF0AAE091210EA050B85
:030E3B0080812291
:1006CC008F088C098D0AC200AF081508EF70030261
:1006DC0007BE1212EE7C007D02120AEDED4C600298
:1006EC00B200E4F50BC3E50B6480948850DAAF0BD1
:1006FC00EF3395E0FEC374079FFDE49EFC3000527F
:10070C00E4FF121358AF0BEF3395E0FEC374079F51
:10071C00FDE49EFC7F08121358AF0BEF3395E0FEFF
:10072C00C374079FFDE49EFC7F10121358AF0BEFB0
:10073C003395E0FEC374079FFDE49EFC7F181213F3
:10074C0058D202750F01E4F510F511F51275131F4F
:10075C0080517F07121358AF0BEF3395E0FEC37433
:10076C00079FFDE49EFC7F0F121358AF0BEF3395E0
:10077C00E0FEC374079FFDE49EFC7F17121358AF75
:10078C000BEF3395E0FEC374079FFDE49EFC7F1FC7
:10079C00121358D202750FFF75100075111FE4F576
:1007AC0012F513121207AF0AAE091210EA050B026A
:0307BC0006F12221
:0F04C700750801750900750A03750B00750C03A4
:1004D600E50A150AAE09700215094E70030205CB2E
:1004E600300069E4F50DC3E50D6480949050E1C2D7
:1004F60002750F01E4F510F511F51275130F1212BE
:1005060007C202750FFF75100075111F7512007571
:100516001310121207E5082401FDE433FCAF0DEFBA
:100526003395E0FE120A98EF5407FFC374079FFD48
:10053600E49400FCE4FF121358E508AF0D12133BD8
:10054600AF0CAE0B1210EA050D0204ECE4F50DC378
:10055600E50D6480949040030204D61211F6C2029F
:10056600750FFF75100075110FE4F512F5131212D1
:1005760007E5082401FDE433FCAF0DEF3395E0FEFB
:10058600120A98EF5407FFC374079FFDE49400FC1A
:100596007F10121358E5082401FDE433FCAF0DEF7C
:1005A6003395E0FE120A98EF5407FFC374079FFDC8
:1005B600E49400FC7F0F121358AF0CAE0B1210EA36
:0605C600050D020555229F
:0F029C00750801750900750A03750B00750C03D1
:1002AB00E50A150AAE09700215094E70030203B573
:1002BB0020000302033FE4F50DC3E50D6480949029
:1002CB0050DEC202750F01E4F510F511F51275132E
:1002DB000F1212071211F6C3E50D64809488504873
:1002EB00E5082401FDE433FCAF0DEF3395E0FE127E
:1002FB000A98EF5407FFC374079FFDE49400FCE4D6
:10030B00FF121358E5082401FDE433FCAF0DEF3366
:10031B0095E0FE120A98EF5407FFC374079FFDE4A4
:10032B009400FC7F10121358AF0CAE0B1210EA05A1
:10033B000D0202C4E4F50DC3E50D648094904003F7
:10034B000202ABC202750FFF75100075111F7512FB
:10035B0000751310121207C202750FFF751000758E
:10036B00110FE4F512F513121207C3E50D64809417
:10037B0088502BE5082401FDE433FCAF0DEF3395DA
:10038B00E0FE120A98EF5407FFC374079FFDE49435
:10039B0000FC7F0F121358E508AF0D12133BAF0C87
:0B03AB00AE0B1210EA050D0203422207
:1003B6008F088C098D0AC200AF081508EF7003027A
:1003C60004C61212EE7C007D02120AEDED4C6002AC
:1003D600B200300074E4F50B7D077C00AF0B1213FE
:1003E60058C3741F950B1210E2E4FDFCAF0B1213F9
:1003F60058C3741F950BFF121358050BC3E50B6406
:1004060080949040D3E4F50B7D011210D3050BC305
:10041600E50B6480949040F0E4F50BC3E50B648033
:1004260094905094C3740F950BFF7D077C001213B4
:1004360058E50B2410FF121358E50A25E0FFE509DD
:1004460033FE1210EA050B80D2E4F50B7D0712107D
:10045600D3C3740F950BFFE4FDFC121358E50B2470
:1004660010FF121358050BC3E50B6480949040DC13
:10047600E4F50B7D017C00AF0B121358C3741F9576
:100486000B1210E2050BC3E50B6480949040E4E484
:10049600F50BC3E50B6480949040030203BE7D0711
:1004A6007C00AF0B121358C3741F950BFF12135821
:1004B600E50A25E0FFE50933FE1210EA050B80D2B6
:0104C6002213
:100BD6008F088C098D0AC200AF081508EF70030252
:100BE6000C75B200E4F50CC3E50C6480948850E8FB
:100BF600300039E4F50BE50B75F002120A64AFF02C
:100C0600EF7008E50CFD3395E0800EAF0CEF3395E1
:100C1600E0FEC374079FFDE49EFCAF0B121358055C
:100C26000BC3E50B648094A040CC8037E4F50BE55C
:100C36000B75F002120A64AFF0EF7010AF0CEF33D1
:100C460095E0FEC374079FFDE49E8006E50CFD3328
:100C560095E0FCAF0B121358050BC3E50B648094AB
:100C6600A040CCAF0AAE091210EA050C020BED2229
:100FD3008F088C098D0AC200E4F50B7D077C00AFF6
:100FE3000B121358E50B2410FF121358E50B2408BA
:100FF300FF7D01121358E50B2418FF121358050B3C
:10100300C3E50B6480948840D2AF081508EF6040B5
:10101300B200E4F50BC3E50B6480948850EB300019
:1010230011D202750F01E4F510F511F51275131FB6
:101033008010D202750FFF75100075111FE4F512B1
:10104300F513121207AF0AAE091210EA050B80C599
:01105300227A
:100D14008F088C098D0AC200AF081508EF70030212
:100D24000DAAB200E4F50CC3E50C6480948850E885
:100D3400300035E4F50BC3E50B648094905008E56E
:100D44000CFD3395E0800EAF0CEF3395E0FEC374D9
:100D5400079FFDE49EFCAF0B121358050BC3E50B74
:100D6400648094A040D08033E4F50BC3E50B648029
:100D740094905010AF0CEF3395E0FEC374079FFDC1
:100D8400E49E8006E50CFD3395E0FCAF0B1213588E
:100D9400050BC3E50B648094A040D0AF0AAE0912E2
:070DA40010EA050C8081221A
:1008A7008F088C098D0AE4F50CC200C201FF1213F0
:1008B700947D017C00020957AF0C050CEF641F7093
:1008C7000302095D1212EE7C007D20120AED8D0DE8
:1008D7007421250DF8E670ECE50D600514F50E8022
:1008E70003750E1F7421250EF8E67040B200300024
:1008F70002B201D202750F01E4F510F511F5127578
:10090700131F121207A201E4FE33FF7C007D0712BA
:100917000A86AC06AD07AF0D121358AF0AAE09121F
:1009270010EAE4FDFCAF0D12135880B8E50CA2E7FE
:1009370013A2E713FFC364809487500EEF3395E04B
:10094700FEEF2401FDE43EFC80047D077C00AF0D33
:100957001213580208BFAF081508EF6029E4F50B1A
:10096700C3E50B648094A050EDD202750F01E4F546
:1009770010F511F51275131F121207AF0AAE0912FF
:0709870010EA050B80DA22E3
:101054008F088C098D0AC200E4F50B7D017C00AF7A
:101064000B121358E50B2410FF7D07121358050BC0
:10107400C3E50B6480949040E2AF081508EF604E1E
:101084001212EE7C007D02120AEDED4C6002B200F9
:10109400E4F50BC3E50B648094A050DD300011D25D
:1010A40002750F01E4F510F511F51275131F801088
:1010B400D202750FFF75100075111FE4F512F513B8
:0F10C400121207AF0AAE091210EA050B80C522FF
:100ECA008F088C098D0AC200E4F50BE50B75F00258
:100EDA00120A64AFF0EF60047D0180027D077C0096
:100EEA00AF0B121358050BC3E50B648094A040DBCB
:100EFA00AF081508EF604E1212EE7C007D02120A4E
:100F0A00EDED4C6002B200E4F50BC3E50B6480948E
:100F1A00A050DD300011D202750F01E4F510F51171
:100F2A00F51275131F8010D202750FFF7510007528
:100F3A00111FE4F512F513121207AF0AAE091210C7
:060F4A00EA050B80C52240
:100180008F088C098D0AAF081508EF700302029BD7
:100190001212EE7C007D02120AEDED75F006A40449
:1001A000F50DE4F50BE4F50CE50C75F008A4250B52
:1001B000FFE50DFD3395E0FC121358E50C75F008D2
:1001C000A42407C3950BFFE50DFD3395E0FC121346
:1001D00058050CC3E50C6480948440CCAF0AAE098A
:1001E0001210EAE4F50CE50C75F008A4250BFFE409
:1001F000FDFC121358E50C75F008A42407C3950BF9
:10020000FF121358050CC3E50C6480948440D70595
:100210000BC3E50B64809483408BE4F50BC3E50BC3
:10022000648094834003020186E4F50CE50C75F0CC
:1002300008A42403C3950BFFE50DFD3395E0FC12E4
:100240001358E50C75F008A42404250BFFE50DFDFB
:100250003395E0FC121358050CC3E50C64809484BC
:1002600040CAAF0AAE091210EAE4F50CE50C75F0CD
:1002700008A42403C3950BFFE4FDFC121358E50CFE
:1002800075F008A42404250BFF121358050CC3E5D0
:0C0290000C6480948440D5050B80822211
:10124D008F088C098D0AAF081508EF60461212EE53
:10125D007C007D10120AED8D0CE4F50BD3E50C64CA
:10126D0080F8E50B64809850211212EE7C007D20F1
:10127D00120AEDAF05C0071212EE7C007D08120AAE
:10128D00EDD007121358050B80D2AF0AAE0912101C
:04129D00EA80B3220E
:100F50008F088C098D0AC200AF081508EF6073B2C4
:100F600000A200B392011213D0E4F50C1212EE7C31
:100F7000007D20120AED8D0BE50B75F008120A6456
:100F80002442F8E6FFE50B75F008120A64AEF0EFB4
:100F9000A806088002C313D8FCFF3000047E01803D
:100FA000027E00EF5E70C5A2009201AF0B1213F536
:100FB000AF0AAE09121374050CC3E50C648094A04B
:100FC00040AAAE09AF0A7C007D05120A861213748E
:030FD000808622F6
:10098E008F088C098D0AAF081508EF7003020A63F1
:10099E001212EE7C007D02120AED8D0DE4F50CE4D0
:1009AE00F50BC37410950CC36480F8E50B64809846
:1009BE004003020A46E50D6039AF0B121144C374B1
:1009CE001F950B12136CC3740F950CC36480F8E55E
:1009DE000B6480985005AF0B1211A2C3740F950CC7
:1009EE00C36480F8E50B6480985048C3741F950B60
:1009FE00803DC3740F950BFF121144E50B241012AA
:100A0E00136CC3740F950CC36480F8E50B64809867
:100A1E005009C3740F950BFF1211A2C3740F950CDE
:100A2E00C36480F8E50B6480985008E50B2410FF32
:100A3E001211A2050B0209B0050CC3E50C648094DB
:100A4E009050030209ADE50A25E0FFE50933FE12D9
:060A5E001374020994224A
:1007BF008F088C098D0AAF081508EF70030208A681
:1007CF001212EE7C007D02120AED8D0DE4F50CE4A1
:1007DF00F50BC37410950CC36480F8E50B64809817
:1007EF004003020889E50D603FAF0B121144E50B82
:1007FF002410FF121144AF0AAE09121374C3740F01
:10080F00950CC36480F8E50B6480985005AF0B120C
:10081F0011A2C3740F950CC36480F8E50B64809824
:10082F005053E50B24108049C3740F950BFF121121
:10083F0044E50BF404241FFF121144AF0AAE091252
:10084F001374C3740F950CC36480F8E50B64809820
:10085F005009C3740F950BFF1211A2C3740F950C9F
:10086F00C36480F8E50B648098500AE50BF4042408
:10087F001FFF1211A2050B0207E1050CC3E50C6463
:10088F0080949050030207DEE50A25E0FFE5093367
:08089F00FE1213740207C522CA
:1005CC00AF081508EF70030206CBE4F50DF50CC36C
:1005DC00E50C64809490400BE50D6480949040038E
:1005EC000206BA1212EE7C007D02120AEDED605B7F
:1005FC00C3E50C6480949050D6E4F50BC37410954D
:10060C000CC36480F8E50B648098503B300004AF59
:10061C000B8006C3740F950BFF121144AF0AAE0981
:10062C00121374C3740F950CC36480F8E50B6480CB
:10063C00985010300004AF0B8006C3740F950BFF5D
:10064C001211A2050B80B5050C8084C3E50D6480E6
:10065C00949040030205DBE4F50BC37410950DC3B5
:10066C006480F8E50B648098503F300007C3741F1A
:10067C00950B8004E50B2410FF121144AF0AAE0950
:10068C00121374C3740F950DC36480F8E50B64806A
:10069C00985012300007C3741F950B8004E50B248F
:1006AC0010FF1211A2050B80B1050D0205DBAE097E
:1006BC00AF0A7C007D03120A861213740205CC2249
:100C7600AF081508EF7003020D13300048E4F50CB9
:100C8600C3E50C6480949050E7E4F50BE50B250C66
:100C9600FF75F004120A64AFF0EFAF0B700E12117D
:100CA60044C3741F950BFF1211448003121199055A
:100CB6000BC3E50B6480949040D2AF0AAE091213C1
:100CC60074050C80BBE4F50CC3E50C64809490506D
:100CD6009F750B0FE50B250CFF75F004120A64AF28
:100CE600F0EFAF0B700E121144C3741F950BFF1279
:100CF60011448003121199150BC3E50B648094808F
:0E0D060050D2AF0AAE09121374050C80BB2246
:090B2300750802750900750A96B7
:100B2C00AF081508EF7003020BD5300047E4F50C45
:100B3C00C3E50C6480949050E7E4F50BE50B250CB1
:100B4C00FF75F004120A64AFF0EFAF0B70051211D1
:100B5C003C800B1211A2E50B2410FF1211A2050B05
:100B6C00C3E50B6480949040D3AF0AAE09121374A2
:100B7C00050C80BCE4F50CC3E50C6480949050A08B
:100B8C00750B0FAF0CEF3395E0FEAD0BED3395E02D
:100B9C00FCED2FFFEC3EFE7C007D03120AEDEDAF69
:100BAC000B700512113C800B1211A2E50B2410FFE7
:100BBC001211A2150BC3E50B6480948050C5AF0ACB
:0A0BCC00AE09121374050C80AE226E
:10000E00EFB41400400302017F90001EF8282873FD
:10001E0002005A02006302006C0200750200A30285
:10002E0000D10200DA0200E30200EC0200F5020049
:10003E00FE02010702011002011902012202012B28
:10004E0002013402013D0201590201757D027C005C
:10005E007F0A0212A17D037C007F05020DAB7D039A
:10006E007C007F110206CCD2001204C7C20012041B
:10007E00C7D200E4F508F509750A03F50B750C03F4
:10008E001204D6C200E4F508F509750A03F50B75DE
:10009E000C030204D6D20012029CC20012029CD2A1
:1000AE0000E4F508F509750A03F50B750C03120249
:1000BE00ABC200E4F508F509750A03F50B750C03E0
:1000CE000202AB7D027C007F050203B67D037C003D
:1000DE007F11020BD67D027C007F0A020FD37D03B7
:1000EE007C007F11020D147D027C007F030208A7A5
:1000FE007D027C007F050210547D0A7C007F020287
:10010E000ECA7D027C007F1E0201807D027C007F74
:10011E006402124D7D327C007F04020F507D117CF3
:10012E00007F0502098E7D117C007F050207BFD27C
:10013E0000750802750900750A111205CCC200750A
:10014E000802750900750A110205CCD20075080265
:10015E00750900750A96120C76C2007508027509AB
:10016E0000750A96020C76D200120B23C200120BF7
:02017E0023223A
:1013B400758901D2AFD2A9D28CD28DE541B418037C
:0C13C400E4F541AF4112000E054180EF3E
:03000000020E3EAF
:0C0E3E00787FE4F6D8FD758145020E8532
:100A6400C2D530F707B2D563F0FF05F030E70CB21A
:100A7400D5F4048463F0FF05F080018430D502F4DA
:020A840004224A
:100A8600EF8DF0A4A8F0CF8CF0A428CE8DF0A42E84
:020A9600FE223E
:100A9800BC000BBE0029EF8DF084FFADF022E4CC42
:100AA800F875F008EF2FFFEE33FEEC33FCEE9DEC0B
:100AB800984005FCEE9DFE0FD5F0E9E4CEFD22ED51
:100AC800F8F5F0EE8420D21CFEADF075F008EF2F9B
:100AD800FFED33FD4007985006D5F0F222C398FD8C
:050AE8000FD5F0EA2229
:100AED00C2D5EC30E709B2D5E4C39DFDE49CFCEE24
:100AFD0030E715B2D5E4C39FFFE49EFE120A98C3FA
:100B0D00E49DFDE49CFC8003120A9830D507C3E4F4
:060B1D009FFFE49EFE2292
:1012EE00AC14AD15AE16AF177810EC4D4E4F700412
:1012FE007CA57DA5C3EC13FCED13FDEE13FEEF13E1
:10130E00FF5010EC64CCFCED644CFDEE644EFEEF31
:10131E0064CEFFD8DF8C148D158E168F17EE547F8A
:0D132E00FE228E148F1574A5F516F51722FA
:100E4A000213B4E493A3F8E493A34003F68001F2F7
:100E5A0008DFF48029E493A3F85407240CC8C333A9
:100E6A00C4540F4420C8834004F456800146F6DF78
:100E7A00E4800B0102040810204080901403E47EF1
:100E8A00019360BCA3FF543F30E509541FFEE4936D
:100E9A00A360010ECF54C025E060A840B8E493A334
:100EAA00FAE493A3F8E493A3C8C582C8CAC583CA5F
:100EBA00F0A3C8C582C8CAC583CADFE9DEE780BE17
:0114060000E5
:00000001FF
